{
  "_format": "hh-sol-artifact-1",
  "contractName": "AgentINFT",
  "sourceName": "contracts/AgentINFT.sol",
  "abi": [
    {
      "inputs": [],
      "stateMutability": "nonpayable",
      "type": "constructor"
    },
    {
      "inputs": [
        {
          "internalType": "address",
          "name": "sender",
          "type": "address"
        },
        {
          "internalType": "uint256",
          "name": "tokenId",
          "type": "uint256"
        },
        {
          "internalType": "address",
          "name": "owner",
          "type": "address"
        }
      ],
      "name": "ERC721IncorrectOwner",
      "type": "error"
    },
    {
      "inputs": [
        {
          "internalType": "address",
          "name": "operator",
          "type": "address"
        },
        {
          "internalType": "uint256",
          "name": "tokenId",
          "type": "uint256"
        }
      ],
      "name": "ERC721InsufficientApproval",
      "type": "error"
    },
    {
      "inputs": [
        {
          "internalType": "address",
          "name": "approver",
          "type": "address"
        }
      ],
      "name": "ERC721InvalidApprover",
      "type": "error"
    },
    {
      "inputs": [
        {
          "internalType": "address",
          "name": "operator",
          "type": "address"
        }
      ],
      "name": "ERC721InvalidOperator",
      "type": "error"
    },
    {
      "inputs": [
        {
          "internalType": "address",
          "name": "owner",
          "type": "address"
        }
      ],
      "name": "ERC721InvalidOwner",
      "type": "error"
    },
    {
      "inputs": [
        {
          "internalType": "address",
          "name": "receiver",
          "type": "address"
        }
      ],
      "name": "ERC721InvalidReceiver",
      "type": "error"
    },
    {
      "inputs": [
        {
          "internalType": "address",
          "name": "sender",
          "type": "address"
        }
      ],
      "name": "ERC721InvalidSender",
      "type": "error"
    },
    {
      "inputs": [
        {
          "internalType": "uint256",
          "name": "tokenId",
          "type": "uint256"
        }
      ],
      "name": "ERC721NonexistentToken",
      "type": "error"
    },
    {
      "inputs": [],
      "name": "ReentrancyGuardReentrantCall",
      "type": "error"
    },
    {
      "anonymous": false,
      "inputs": [
        {
          "indexed": true,
          "internalType": "uint256",
          "name": "tokenId",
          "type": "uint256"
        },
        {
          "indexed": true,
          "internalType": "uint256",
          "name": "agentId",
          "type": "uint256"
        },
        {
          "indexed": false,
          "internalType": "address",
          "name": "owner",
          "type": "address"
        },
        {
          "indexed": false,
          "internalType": "bytes32",
          "name": "dataHash",
          "type": "bytes32"
        }
      ],
      "name": "AgentMinted",
      "type": "event"
    },
    {
      "anonymous": false,
      "inputs": [
        {
          "indexed": true,
          "internalType": "address",
          "name": "owner",
          "type": "address"
        },
        {
          "indexed": true,
          "internalType": "address",
          "name": "approved",
          "type": "address"
        },
        {
          "indexed": true,
          "internalType": "uint256",
          "name": "tokenId",
          "type": "uint256"
        }
      ],
      "name": "Approval",
      "type": "event"
    },
    {
      "anonymous": false,
      "inputs": [
        {
          "indexed": true,
          "internalType": "address",
          "name": "owner",
          "type": "address"
        },
        {
          "indexed": true,
          "internalType": "address",
          "name": "operator",
          "type": "address"
        },
        {
          "indexed": false,
          "internalType": "bool",
          "name": "approved",
          "type": "bool"
        }
      ],
      "name": "ApprovalForAll",
      "type": "event"
    },
    {
      "anonymous": false,
      "inputs": [
        {
          "indexed": true,
          "internalType": "uint256",
          "name": "tokenId",
          "type": "uint256"
        },
        {
          "indexed": false,
          "internalType": "bytes32",
          "name": "newHash",
          "type": "bytes32"
        }
      ],
      "name": "DataHashUpdated",
      "type": "event"
    },
    {
      "anonymous": false,
      "inputs": [
        {
          "indexed": true,
          "internalType": "address",
          "name": "from",
          "type": "address"
        },
        {
          "indexed": true,
          "internalType": "address",
          "name": "to",
          "type": "address"
        },
        {
          "indexed": true,
          "internalType": "uint256",
          "name": "tokenId",
          "type": "uint256"
        }
      ],
      "name": "Transfer",
      "type": "event"
    },
    {
      "inputs": [
        {
          "internalType": "address",
          "name": "to",
          "type": "address"
        },
        {
          "internalType": "uint256",
          "name": "tokenId",
          "type": "uint256"
        }
      ],
      "name": "approve",
      "outputs": [],
      "stateMutability": "nonpayable",
      "type": "function"
    },
    {
      "inputs": [
        {
          "internalType": "address",
          "name": "owner",
          "type": "address"
        }
      ],
      "name": "balanceOf",
      "outputs": [
        {
          "internalType": "uint256",
          "name": "",
          "type": "uint256"
        }
      ],
      "stateMutability": "view",
      "type": "function"
    },
    {
      "inputs": [
        {
          "internalType": "uint256",
          "name": "tokenId",
          "type": "uint256"
        }
      ],
      "name": "getApproved",
      "outputs": [
        {
          "internalType": "address",
          "name": "",
          "type": "address"
        }
      ],
      "stateMutability": "view",
      "type": "function"
    },
    {
      "inputs": [
        {
          "internalType": "address",
          "name": "owner",
          "type": "address"
        },
        {
          "internalType": "address",
          "name": "operator",
          "type": "address"
        }
      ],
      "name": "isApprovedForAll",
      "outputs": [
        {
          "internalType": "bool",
          "name": "",
          "type": "bool"
        }
      ],
      "stateMutability": "view",
      "type": "function"
    },
    {
      "inputs": [
        {
          "internalType": "uint256",
          "name": "agentId",
          "type": "uint256"
        },
        {
          "internalType": "bytes32",
          "name": "dataHash",
          "type": "bytes32"
        }
      ],
      "name": "mint",
      "outputs": [
        {
          "internalType": "uint256",
          "name": "",
          "type": "uint256"
        }
      ],
      "stateMutability": "nonpayable",
      "type": "function"
    },
    {
      "inputs": [],
      "name": "name",
      "outputs": [
        {
          "internalType": "string",
          "name": "",
          "type": "string"
        }
      ],
      "stateMutability": "view",
      "type": "function"
    },
    {
      "inputs": [
        {
          "internalType": "uint256",
          "name": "tokenId",
          "type": "uint256"
        }
      ],
      "name": "ownerOf",
      "outputs": [
        {
          "internalType": "address",
          "name": "",
          "type": "address"
        }
      ],
      "stateMutability": "view",
      "type": "function"
    },
    {
      "inputs": [
        {
          "internalType": "address",
          "name": "from",
          "type": "address"
        },
        {
          "internalType": "address",
          "name": "to",
          "type": "address"
        },
        {
          "internalType": "uint256",
          "name": "tokenId",
          "type": "uint256"
        }
      ],
      "name": "safeTransferFrom",
      "outputs": [],
      "stateMutability": "nonpayable",
      "type": "function"
    },
    {
      "inputs": [
        {
          "internalType": "address",
          "name": "from",
          "type": "address"
        },
        {
          "internalType": "address",
          "name": "to",
          "type": "address"
        },
        {
          "internalType": "uint256",
          "name": "tokenId",
          "type": "uint256"
        },
        {
          "internalType": "bytes",
          "name": "data",
          "type": "bytes"
        }
      ],
      "name": "safeTransferFrom",
      "outputs": [],
      "stateMutability": "nonpayable",
      "type": "function"
    },
    {
      "inputs": [
        {
          "internalType": "address",
          "name": "operator",
          "type": "address"
        },
        {
          "internalType": "bool",
          "name": "approved",
          "type": "bool"
        }
      ],
      "name": "setApprovalForAll",
      "outputs": [],
      "stateMutability": "nonpayable",
      "type": "function"
    },
    {
      "inputs": [
        {
          "internalType": "bytes4",
          "name": "interfaceId",
          "type": "bytes4"
        }
      ],
      "name": "supportsInterface",
      "outputs": [
        {
          "internalType": "bool",
          "name": "",
          "type": "bool"
        }
      ],
      "stateMutability": "view",
      "type": "function"
    },
    {
      "inputs": [],
      "name": "symbol",
      "outputs": [
        {
          "internalType": "string",
          "name": "",
          "type": "string"
        }
      ],
      "stateMutability": "view",
      "type": "function"
    },
    {
      "inputs": [
        {
          "internalType": "uint256",
          "name": "",
          "type": "uint256"
        }
      ],
      "name": "tokenAgentId",
      "outputs": [
        {
          "internalType": "uint256",
          "name": "",
          "type": "uint256"
        }
      ],
      "stateMutability": "view",
      "type": "function"
    },
    {
      "inputs": [
        {
          "internalType": "uint256",
          "name": "",
          "type": "uint256"
        }
      ],
      "name": "tokenDataHash",
      "outputs": [
        {
          "internalType": "bytes32",
          "name": "",
          "type": "bytes32"
        }
      ],
      "stateMutability": "view",
      "type": "function"
    },
    {
      "inputs": [
        {
          "internalType": "uint256",
          "name": "tokenId",
          "type": "uint256"
        }
      ],
      "name": "tokenURI",
      "outputs": [
        {
          "internalType": "string",
          "name": "",
          "type": "string"
        }
      ],
      "stateMutability": "view",
      "type": "function"
    },
    {
      "inputs": [
        {
          "internalType": "address",
          "name": "from",
          "type": "address"
        },
        {
          "internalType": "address",
          "name": "to",
          "type": "address"
        },
        {
          "internalType": "uint256",
          "name": "tokenId",
          "type": "uint256"
        }
      ],
      "name": "transferFrom",
      "outputs": [],
      "stateMutability": "nonpayable",
      "type": "function"
    },
    {
      "inputs": [
        {
          "internalType": "uint256",
          "name": "tokenId",
          "type": "uint256"
        },
        {
          "internalType": "bytes32",
          "name": "newHash",
          "type": "bytes32"
        }
      ],
      "name": "updateDataHash",
      "outputs": [],
      "stateMutability": "nonpayable",
      "type": "function"
    }
  ],
  "bytecode": "0x608060405234801561000f575f80fd5b506040518060400160405280600e81526020016d14ddd85c9b5a5b9d081059d95b9d60921b8152506040518060400160405280600681526020016514d051d1539560d21b815250815f9081610064919061014c565b506001610071828261014c565b505050600161008a61008761009060201b60201c565b90565b5561020b565b7f9b779b17422d0df92223018b32b4d1fa46e071723d6817e2486d003becc55f0090565b634e487b7160e01b5f52604160045260245ffd5b600181811c908216806100dc57607f821691505b6020821081036100fa57634e487b7160e01b5f52602260045260245ffd5b50919050565b601f82111561014757805f5260205f20601f840160051c810160208510156101255750805b601f840160051c820191505b81811015610144575f8155600101610131565b50505b505050565b81516001600160401b03811115610165576101656100b4565b6101798161017384546100c8565b84610100565b602080601f8311600181146101ac575f84156101955750858301515b5f19600386901b1c1916600185901b178555610203565b5f85815260208120601f198616915b828110156101da578886015182559484019460019091019084016101bb565b50858210156101f757878501515f19600388901b60f8161c191681555b505060018460011b0185555b505050505050565b6111cb806102185f395ff3fe608060405234801561000f575f80fd5b5060043610610106575f3560e01c80636352211e1161009e578063a22cb4651161006e578063a22cb4651461022e578063b88d4fde14610241578063c87b56dd14610254578063e985e9c514610267578063fad88c8f1461027a575f80fd5b80636352211e146101e157806370a08231146101f45780638df459c91461020757806395d89b4114610226575f80fd5b80631801fbe5116100d95780631801fbe51461018757806323b872dd146101a857806324d426c7146101bb57806342842e0e146101ce575f80fd5b806301ffc9a71461010a57806306fdde0314610132578063081812fc14610147578063095ea7b314610172575b5f80fd5b61011d610118366004610e3d565b610299565b60405190151581526020015b60405180910390f35b61013a6102ea565b6040516101299190610e86565b61015a610155366004610e98565b610379565b6040516001600160a01b039091168152602001610129565b610185610180366004610eca565b6103a0565b005b61019a610195366004610ef2565b6103af565b604051908152602001610129565b6101856101b6366004610f12565b61045b565b6101856101c9366004610ef2565b6104e9565b6101856101dc366004610f12565b61058b565b61015a6101ef366004610e98565b6105aa565b61019a610202366004610f4b565b6105b4565b61019a610215366004610e98565b60076020525f908152604090205481565b61013a6105f9565b61018561023c366004610f64565b610608565b61018561024f366004610fb1565b610613565b61013a610262366004610e98565b61062b565b61011d610275366004611086565b61069c565b61019a610288366004610e98565b60086020525f908152604090205481565b5f6001600160e01b031982166380ac58cd60e01b14806102c957506001600160e01b03198216635b5e139f60e01b145b806102e457506301ffc9a760e01b6001600160e01b03198316145b92915050565b60605f80546102f8906110b7565b80601f0160208091040260200160405190810160405280929190818152602001828054610324906110b7565b801561036f5780601f106103465761010080835404028352916020019161036f565b820191905f5260205f20905b81548152906001019060200180831161035257829003601f168201915b5050505050905090565b5f610383826106c9565b505f828152600460205260409020546001600160a01b03166102e4565b6103ab828233610701565b5050565b5f6103b861070e565b5f60065f81546103c7906110ef565b918290555090506103d8338261073c565b5f81815260076020908152604080832087905560088252918290208590558151338152908101859052859183917fc130156132294e974c842828c0310fc0d0745bd8575981d2d47c9865956414f5910160405180910390a390506102e460017f9b779b17422d0df92223018b32b4d1fa46e071723d6817e2486d003becc55f0055565b6001600160a01b03821661048957604051633250574960e11b81525f60048201526024015b60405180910390fd5b5f610495838333610755565b9050836001600160a01b0316816001600160a01b0316146104e3576040516364283d7b60e01b81526001600160a01b0380861660048301526024820184905282166044820152606401610480565b50505050565b336104f3836105aa565b6001600160a01b03161461053b5760405162461bcd60e51b815260206004820152600f60248201526e2737ba103a37b5b2b71037bbb732b960891b6044820152606401610480565b5f82815260086020526040908190208290555182907fbf5b3aee26a659fe851352212c9ef4ba04f929772720c341ed26f0a0d3c63d089061057f9084815260200190565b60405180910390a25050565b6105a583838360405180602001604052805f815250610613565b505050565b5f6102e4826106c9565b5f6001600160a01b0382166105de576040516322718ad960e21b81525f6004820152602401610480565b506001600160a01b03165f9081526003602052604090205490565b6060600180546102f8906110b7565b6103ab338383610847565b61061e84848461045b565b6104e3338585858561090e565b6060610636826106c9565b505f61064c60408051602081019091525f815290565b90505f81511161066a5760405180602001604052805f815250610695565b8061067484610a36565b60405160200161068592919061112a565b6040516020818303038152906040525b9392505050565b6001600160a01b039182165f90815260056020908152604080832093909416825291909152205460ff1690565b5f818152600260205260408120546001600160a01b0316806102e457604051637e27328960e01b815260048101849052602401610480565b6105a58383836001610ac6565b610716610bca565b60027f9b779b17422d0df92223018b32b4d1fa46e071723d6817e2486d003becc55f0055565b6103ab828260405180602001604052805f815250610c0e565b5f828152600260205260408120546001600160a01b039081169083161561078157610781818486610c25565b6001600160a01b038116156107bb5761079c5f855f80610ac6565b6001600160a01b0381165f90815260036020526040902080545f190190555b6001600160a01b038516156107e9576001600160a01b0385165f908152600360205260409020805460010190555b5f8481526002602052604080822080546001600160a01b0319166001600160a01b0389811691821790925591518793918516917fddf252ad1be2c89b69c2b068fc378daa952ba7f163c4a11628f55a4df523b3ef91a4949350505050565b6001600160a01b0383166108705760405163a9fbf51f60e01b81525f6004820152602401610480565b6001600160a01b0382166108a257604051630b61174360e31b81526001600160a01b0383166004820152602401610480565b6001600160a01b038381165f81815260056020908152604080832094871680845294825291829020805460ff191686151590811790915591519182527f17307eab39ab6107e8899845ad3d59bd9653f200f220920489ca2b5937696c31910160405180910390a3505050565b6001600160a01b0383163b15610a2f57604051630a85bd0160e11b81526001600160a01b0384169063150b7a029061095090889088908790879060040161113e565b6020604051808303815f875af192505050801561098a575060408051601f3d908101601f191682019092526109879181019061117a565b60015b6109f1573d8080156109b7576040519150601f19603f3d011682016040523d82523d5f602084013e6109bc565b606091505b5080515f036109e957604051633250574960e11b81526001600160a01b0385166004820152602401610480565b805160208201fd5b6001600160e01b03198116630a85bd0160e11b14610a2d57604051633250574960e11b81526001600160a01b0385166004820152602401610480565b505b5050505050565b60605f610a4283610c89565b60010190505f8167ffffffffffffffff811115610a6157610a61610f9d565b6040519080825280601f01601f191660200182016040528015610a8b576020820181803683370190505b5090508181016020015b5f19016f181899199a1a9b1b9c1cb0b131b232b360811b600a86061a8153600a8504945084610a9557509392505050565b8080610ada57506001600160a01b03821615155b15610b9b575f610ae9846106c9565b90506001600160a01b03831615801590610b155750826001600160a01b0316816001600160a01b031614155b8015610b285750610b26818461069c565b155b15610b515760405163a9fbf51f60e01b81526001600160a01b0384166004820152602401610480565b8115610b995783856001600160a01b0316826001600160a01b03167f8c5be1e5ebec7d5bd14f71427d1e84f3dd0314c0f7b2291e5b200ac8c7c3b92560405160405180910390a45b505b50505f90815260046020526040902080546001600160a01b0319166001600160a01b0392909216919091179055565b7f9b779b17422d0df92223018b32b4d1fa46e071723d6817e2486d003becc55f0054600203610c0c57604051633ee5aeb560e01b815260040160405180910390fd5b565b610c188383610d60565b6105a5335f85858561090e565b610c30838383610dc1565b6105a5576001600160a01b038316610c5e57604051637e27328960e01b815260048101829052602401610480565b60405163177e802f60e01b81526001600160a01b038316600482015260248101829052604401610480565b5f8072184f03e93ff9f4daa797ed6e38ed64bf6a1f0160401b8310610cc75772184f03e93ff9f4daa797ed6e38ed64bf6a1f0160401b830492506040015b6d04ee2d6d415b85acef81000000008310610cf3576d04ee2d6d415b85acef8100000000830492506020015b662386f26fc100008310610d1157662386f26fc10000830492506010015b6305f5e1008310610d29576305f5e100830492506008015b6127108310610d3d57612710830492506004015b60648310610d4f576064830492506002015b600a83106102e45760010192915050565b6001600160a01b038216610d8957604051633250574960e11b81525f6004820152602401610480565b5f610d9583835f610755565b90506001600160a01b038116156105a5576040516339e3563760e11b81525f6004820152602401610480565b5f6001600160a01b03831615801590610e1d5750826001600160a01b0316846001600160a01b03161480610dfa5750610dfa848461069c565b80610e1d57505f828152600460205260409020546001600160a01b038481169116145b949350505050565b6001600160e01b031981168114610e3a575f80fd5b50565b5f60208284031215610e4d575f80fd5b813561069581610e25565b5f81518084528060208401602086015e5f602082860101526020601f19601f83011685010191505092915050565b602081525f6106956020830184610e58565b5f60208284031215610ea8575f80fd5b5035919050565b80356001600160a01b0381168114610ec5575f80fd5b919050565b5f8060408385031215610edb575f80fd5b610ee483610eaf565b946020939093013593505050565b5f8060408385031215610f03575f80fd5b50508035926020909101359150565b5f805f60608486031215610f24575f80fd5b610f2d84610eaf565b9250610f3b60208501610eaf565b9150604084013590509250925092565b5f60208284031215610f5b575f80fd5b61069582610eaf565b5f8060408385031215610f75575f80fd5b610f7e83610eaf565b915060208301358015158114610f92575f80fd5b809150509250929050565b634e487b7160e01b5f52604160045260245ffd5b5f805f8060808587031215610fc4575f80fd5b610fcd85610eaf565b9350610fdb60208601610eaf565b925060408501359150606085013567ffffffffffffffff80821115610ffe575f80fd5b818701915087601f830112611011575f80fd5b81358181111561102357611023610f9d565b604051601f8201601f19908116603f0116810190838211818310171561104b5761104b610f9d565b816040528281528a6020848701011115611063575f80fd5b826020860160208301375f60208483010152809550505050505092959194509250565b5f8060408385031215611097575f80fd5b6110a083610eaf565b91506110ae60208401610eaf565b90509250929050565b600181811c908216806110cb57607f821691505b6020821081036110e957634e487b7160e01b5f52602260045260245ffd5b50919050565b5f6001820161110c57634e487b7160e01b5f52601160045260245ffd5b5060010190565b5f81518060208401855e5f93019283525090919050565b5f610e1d6111388386611113565b84611113565b6001600160a01b03858116825284166020820152604081018390526080606082018190525f9061117090830184610e58565b9695505050505050565b5f6020828403121561118a575f80fd5b815161069581610e2556fea2646970667358221220708680d424d7d7eabc56f03d6786879c76ed3029f8f2a8fb2e7b619c9665e30464736f6c63430008190033",
  "linkReferences": {},
  "deployedLinkReferences": {}
}