{
  "_format": "hh-sol-artifact-1",
  "contractName": "SwarmMetaINFT",
  "sourceName": "contracts/SwarmMetaINFT.sol",
  "abi": [
    {
      "inputs": [],
      "stateMutability": "nonpayable",
      "type": "constructor"
    },
    {
      "inputs": [
        {
          "internalType": "address",
          "name": "sender",
          "type": "address"
        },
        {
          "internalType": "uint256",
          "name": "tokenId",
          "type": "uint256"
        },
        {
          "internalType": "address",
          "name": "owner",
          "type": "address"
        }
      ],
      "name": "ERC721IncorrectOwner",
      "type": "error"
    },
    {
      "inputs": [
        {
          "internalType": "address",
          "name": "operator",
          "type": "address"
        },
        {
          "internalType": "uint256",
          "name": "tokenId",
          "type": "uint256"
        }
      ],
      "name": "ERC721InsufficientApproval",
      "type": "error"
    },
    {
      "inputs": [
        {
          "internalType": "address",
          "name": "approver",
          "type": "address"
        }
      ],
      "name": "ERC721InvalidApprover",
      "type": "error"
    },
    {
      "inputs": [
        {
          "internalType": "address",
          "name": "operator",
          "type": "address"
        }
      ],
      "name": "ERC721InvalidOperator",
      "type": "error"
    },
    {
      "inputs": [
        {
          "internalType": "address",
          "name": "owner",
          "type": "address"
        }
      ],
      "name": "ERC721InvalidOwner",
      "type": "error"
    },
    {
      "inputs": [
        {
          "internalType": "address",
          "name": "receiver",
          "type": "address"
        }
      ],
      "name": "ERC721InvalidReceiver",
      "type": "error"
    },
    {
      "inputs": [
        {
          "internalType": "address",
          "name": "sender",
          "type": "address"
        }
      ],
      "name": "ERC721InvalidSender",
      "type": "error"
    },
    {
      "inputs": [
        {
          "internalType": "uint256",
          "name": "tokenId",
          "type": "uint256"
        }
      ],
      "name": "ERC721NonexistentToken",
      "type": "error"
    },
    {
      "inputs": [],
      "name": "ReentrancyGuardReentrantCall",
      "type": "error"
    },
    {
      "anonymous": false,
      "inputs": [
        {
          "indexed": true,
          "internalType": "address",
          "name": "owner",
          "type": "address"
        },
        {
          "indexed": true,
          "internalType": "address",
          "name": "approved",
          "type": "address"
        },
        {
          "indexed": true,
          "internalType": "uint256",
          "name": "tokenId",
          "type": "uint256"
        }
      ],
      "name": "Approval",
      "type": "event"
    },
    {
      "anonymous": false,
      "inputs": [
        {
          "indexed": true,
          "internalType": "address",
          "name": "owner",
          "type": "address"
        },
        {
          "indexed": true,
          "internalType": "address",
          "name": "operator",
          "type": "address"
        },
        {
          "indexed": false,
          "internalType": "bool",
          "name": "approved",
          "type": "bool"
        }
      ],
      "name": "ApprovalForAll",
      "type": "event"
    },
    {
      "anonymous": false,
      "inputs": [
        {
          "indexed": true,
          "internalType": "uint256",
          "name": "swarmTokenId",
          "type": "uint256"
        },
        {
          "indexed": false,
          "internalType": "bytes32",
          "name": "newRoot",
          "type": "bytes32"
        }
      ],
      "name": "DeliberationRootUpdated",
      "type": "event"
    },
    {
      "anonymous": false,
      "inputs": [
        {
          "indexed": true,
          "internalType": "uint256",
          "name": "swarmTokenId",
          "type": "uint256"
        },
        {
          "indexed": true,
          "internalType": "address",
          "name": "owner",
          "type": "address"
        },
        {
          "indexed": false,
          "internalType": "uint256[]",
          "name": "memberTokenIds",
          "type": "uint256[]"
        },
        {
          "indexed": false,
          "internalType": "bytes32",
          "name": "deliberationRoot",
          "type": "bytes32"
        }
      ],
      "name": "SwarmComposed",
      "type": "event"
    },
    {
      "anonymous": false,
      "inputs": [
        {
          "indexed": true,
          "internalType": "uint256",
          "name": "swarmTokenId",
          "type": "uint256"
        },
        {
          "indexed": false,
          "internalType": "enum SwarmMetaINFT.SwarmStatus",
          "name": "status",
          "type": "uint8"
        }
      ],
      "name": "SwarmStatusUpdated",
      "type": "event"
    },
    {
      "anonymous": false,
      "inputs": [
        {
          "indexed": true,
          "internalType": "address",
          "name": "from",
          "type": "address"
        },
        {
          "indexed": true,
          "internalType": "address",
          "name": "to",
          "type": "address"
        },
        {
          "indexed": true,
          "internalType": "uint256",
          "name": "tokenId",
          "type": "uint256"
        }
      ],
      "name": "Transfer",
      "type": "event"
    },
    {
      "inputs": [
        {
          "internalType": "address",
          "name": "to",
          "type": "address"
        },
        {
          "internalType": "uint256",
          "name": "tokenId",
          "type": "uint256"
        }
      ],
      "name": "approve",
      "outputs": [],
      "stateMutability": "nonpayable",
      "type": "function"
    },
    {
      "inputs": [
        {
          "internalType": "address",
          "name": "owner",
          "type": "address"
        }
      ],
      "name": "balanceOf",
      "outputs": [
        {
          "internalType": "uint256",
          "name": "",
          "type": "uint256"
        }
      ],
      "stateMutability": "view",
      "type": "function"
    },
    {
      "inputs": [
        {
          "internalType": "string",
          "name": "threadId",
          "type": "string"
        },
        {
          "internalType": "uint256[]",
          "name": "memberTokenIds",
          "type": "uint256[]"
        },
        {
          "internalType": "bytes32",
          "name": "deliberationRoot",
          "type": "bytes32"
        }
      ],
      "name": "compose",
      "outputs": [
        {
          "internalType": "uint256",
          "name": "",
          "type": "uint256"
        }
      ],
      "stateMutability": "nonpayable",
      "type": "function"
    },
    {
      "inputs": [
        {
          "internalType": "uint256",
          "name": "tokenId",
          "type": "uint256"
        }
      ],
      "name": "getApproved",
      "outputs": [
        {
          "internalType": "address",
          "name": "",
          "type": "address"
        }
      ],
      "stateMutability": "view",
      "type": "function"
    },
    {
      "inputs": [
        {
          "internalType": "uint256",
          "name": "swarmTokenId",
          "type": "uint256"
        }
      ],
      "name": "getSwarmMembers",
      "outputs": [
        {
          "internalType": "uint256[]",
          "name": "",
          "type": "uint256[]"
        }
      ],
      "stateMutability": "view",
      "type": "function"
    },
    {
      "inputs": [
        {
          "internalType": "address",
          "name": "user",
          "type": "address"
        }
      ],
      "name": "getUserSwarms",
      "outputs": [
        {
          "internalType": "uint256[]",
          "name": "",
          "type": "uint256[]"
        }
      ],
      "stateMutability": "view",
      "type": "function"
    },
    {
      "inputs": [
        {
          "internalType": "address",
          "name": "owner",
          "type": "address"
        },
        {
          "internalType": "address",
          "name": "operator",
          "type": "address"
        }
      ],
      "name": "isApprovedForAll",
      "outputs": [
        {
          "internalType": "bool",
          "name": "",
          "type": "bool"
        }
      ],
      "stateMutability": "view",
      "type": "function"
    },
    {
      "inputs": [],
      "name": "name",
      "outputs": [
        {
          "internalType": "string",
          "name": "",
          "type": "string"
        }
      ],
      "stateMutability": "view",
      "type": "function"
    },
    {
      "inputs": [
        {
          "internalType": "uint256",
          "name": "tokenId",
          "type": "uint256"
        }
      ],
      "name": "ownerOf",
      "outputs": [
        {
          "internalType": "address",
          "name": "",
          "type": "address"
        }
      ],
      "stateMutability": "view",
      "type": "function"
    },
    {
      "inputs": [
        {
          "internalType": "address",
          "name": "from",
          "type": "address"
        },
        {
          "internalType": "address",
          "name": "to",
          "type": "address"
        },
        {
          "internalType": "uint256",
          "name": "tokenId",
          "type": "uint256"
        }
      ],
      "name": "safeTransferFrom",
      "outputs": [],
      "stateMutability": "nonpayable",
      "type": "function"
    },
    {
      "inputs": [
        {
          "internalType": "address",
          "name": "from",
          "type": "address"
        },
        {
          "internalType": "address",
          "name": "to",
          "type": "address"
        },
        {
          "internalType": "uint256",
          "name": "tokenId",
          "type": "uint256"
        },
        {
          "internalType": "bytes",
          "name": "data",
          "type": "bytes"
        }
      ],
      "name": "safeTransferFrom",
      "outputs": [],
      "stateMutability": "nonpayable",
      "type": "function"
    },
    {
      "inputs": [
        {
          "internalType": "address",
          "name": "operator",
          "type": "address"
        },
        {
          "internalType": "bool",
          "name": "approved",
          "type": "bool"
        }
      ],
      "name": "setApprovalForAll",
      "outputs": [],
      "stateMutability": "nonpayable",
      "type": "function"
    },
    {
      "inputs": [
        {
          "internalType": "bytes4",
          "name": "interfaceId",
          "type": "bytes4"
        }
      ],
      "name": "supportsInterface",
      "outputs": [
        {
          "internalType": "bool",
          "name": "",
          "type": "bool"
        }
      ],
      "stateMutability": "view",
      "type": "function"
    },
    {
      "inputs": [
        {
          "internalType": "uint256",
          "name": "",
          "type": "uint256"
        }
      ],
      "name": "swarms",
      "outputs": [
        {
          "internalType": "string",
          "name": "threadId",
          "type": "string"
        },
        {
          "internalType": "bytes32",
          "name": "deliberationRoot",
          "type": "bytes32"
        },
        {
          "internalType": "uint256",
          "name": "createdAt",
          "type": "uint256"
        },
        {
          "internalType": "enum SwarmMetaINFT.SwarmStatus",
          "name": "status",
          "type": "uint8"
        }
      ],
      "stateMutability": "view",
      "type": "function"
    },
    {
      "inputs": [],
      "name": "symbol",
      "outputs": [
        {
          "internalType": "string",
          "name": "",
          "type": "string"
        }
      ],
      "stateMutability": "view",
      "type": "function"
    },
    {
      "inputs": [
        {
          "internalType": "uint256",
          "name": "tokenId",
          "type": "uint256"
        }
      ],
      "name": "tokenURI",
      "outputs": [
        {
          "internalType": "string",
          "name": "",
          "type": "string"
        }
      ],
      "stateMutability": "view",
      "type": "function"
    },
    {
      "inputs": [
        {
          "internalType": "address",
          "name": "from",
          "type": "address"
        },
        {
          "internalType": "address",
          "name": "to",
          "type": "address"
        },
        {
          "internalType": "uint256",
          "name": "tokenId",
          "type": "uint256"
        }
      ],
      "name": "transferFrom",
      "outputs": [],
      "stateMutability": "nonpayable",
      "type": "function"
    },
    {
      "inputs": [
        {
          "internalType": "uint256",
          "name": "swarmTokenId",
          "type": "uint256"
        },
        {
          "internalType": "bytes32",
          "name": "newRoot",
          "type": "bytes32"
        }
      ],
      "name": "updateDeliberationRoot",
      "outputs": [],
      "stateMutability": "nonpayable",
      "type": "function"
    },
    {
      "inputs": [
        {
          "internalType": "uint256",
          "name": "swarmTokenId",
          "type": "uint256"
        },
        {
          "internalType": "enum SwarmMetaINFT.SwarmStatus",
          "name": "newStatus",
          "type": "uint8"
        }
      ],
      "name": "updateSwarmStatus",
      "outputs": [],
      "stateMutability": "nonpayable",
      "type": "function"
    }
  ],
  "bytecode": "0x608060405234801561000f575f80fd5b506040518060400160405280600d81526020016c537761726d696e74204d65746160981b81525060405180604001604052806005815260200164534d45544160d81b815250815f9081610062919061014a565b50600161006f828261014a565b505050600161008861008561008e60201b60201c565b90565b55610209565b7f9b779b17422d0df92223018b32b4d1fa46e071723d6817e2486d003becc55f0090565b634e487b7160e01b5f52604160045260245ffd5b600181811c908216806100da57607f821691505b6020821081036100f857634e487b7160e01b5f52602260045260245ffd5b50919050565b601f82111561014557805f5260205f20601f840160051c810160208510156101235750805b601f840160051c820191505b81811015610142575f815560010161012f565b50505b505050565b81516001600160401b03811115610163576101636100b2565b6101778161017184546100c6565b846100fe565b602080601f8311600181146101aa575f84156101935750858301515b5f19600386901b1c1916600185901b178555610201565b5f85815260208120601f198616915b828110156101d8578886015182559484019460019091019084016101b9565b50858210156101f557878501515f19600388901b60f8161c191681555b505060018460011b0185555b505050505050565b6118d2806102165f395ff3fe608060405234801561000f575f80fd5b506004361061011c575f3560e01c80636352211e116100a9578063b88d4fde1161006e578063b88d4fde1461027b578063c87b56dd1461028e578063ccda6a75146102a1578063e1aff462146102b4578063e985e9c5146102c7575f80fd5b80636352211e1461022757806370a082311461023a5780637bcea1881461024d57806395d89b4114610260578063a22cb46514610268575f80fd5b8063095ea7b3116100ef578063095ea7b3146101ab5780630f4bbceb146101c057806323b872dd146101e157806342842e0e146101f4578063555ab2da14610207575f80fd5b806301ffc9a714610120578063052042d81461014857806306fdde031461016b578063081812fc14610180575b5f80fd5b61013361012e36600461126f565b6102da565b60405190151581526020015b60405180910390f35b61015b61015636600461128a565b61032b565b60405161013f9493929190611303565b6101736103dd565b60405161013f9190611330565b61019361018e36600461128a565b61046c565b6040516001600160a01b03909116815260200161013f565b6101be6101b936600461135d565b610493565b005b6101d36101ce366004611385565b6104a2565b60405190815260200161013f565b6101be6101ef366004611446565b6106b5565b6101be610202366004611446565b61073e565b61021a61021536600461147f565b61075d565b60405161013f9190611498565b61019361023536600461128a565b6107c6565b6101d361024836600461147f565b6107d0565b6101be61025b3660046114db565b610815565b6101736108ba565b6101be6102763660046114fb565b6108c9565b6101be610289366004611548565b6108d4565b61017361029c36600461128a565b6108ec565b6101be6102af36600461161d565b61095d565b61021a6102c236600461128a565b610a11565b6101336102d5366004611643565b610a71565b5f6001600160e01b031982166380ac58cd60e01b148061030a57506001600160e01b03198216635b5e139f60e01b145b8061032557506301ffc9a760e01b6001600160e01b03198316145b92915050565b60076020525f908152604090208054819061034590611674565b80601f016020809104026020016040519081016040528092919081815260200182805461037190611674565b80156103bc5780601f10610393576101008083540402835291602001916103bc565b820191905f5260205f20905b81548152906001019060200180831161039f57829003601f168201915b50505050600283015460038401546004909401549293909290915060ff1684565b60605f80546103eb90611674565b80601f016020809104026020016040519081016040528092919081815260200182805461041790611674565b80156104625780601f1061043957610100808354040283529160200191610462565b820191905f5260205f20905b81548152906001019060200180831161044557829003601f168201915b5050505050905090565b5f61047682610a9e565b505f828152600460205260409020546001600160a01b0316610325565b61049e828233610ad6565b5050565b5f6104ab610ae3565b60028310156104fa5760405162461bcd60e51b81526020600482015260166024820152754e656564206174206c656173742032206167656e747360501b60448201526064015b60405180910390fd5b5f60065f8154610509906116ac565b9182905550905061051a3382610b11565b6040518060a0016040528088888080601f0160208091040260200160405190810160405280939291908181526020018383808284375f9201919091525050509082525060408051602088810282810182019093528882529283019290918991899182918501908490808284375f920182905250938552505050602082018690524260408301526060909101525f828152600760205260409020815181906105c19082611714565b5060208281015180516105da92600185019201906111fa565b5060408201518160020155606082015181600301556080820151816004015f6101000a81548160ff02191690836002811115610618576106186112cf565b021790555050335f818152600860209081526040808320805460018101825590845291909220018490555190915082907f1b98e2e267c4070318f3a344745f3de210b68c5675f88b1a37871bdc82ac8d2090610679908990899089906117d0565b60405180910390a390506106ac60017f9b779b17422d0df92223018b32b4d1fa46e071723d6817e2486d003becc55f0055565b95945050505050565b6001600160a01b0382166106de57604051633250574960e11b81525f60048201526024016104f1565b5f6106ea838333610b2a565b9050836001600160a01b0316816001600160a01b031614610738576040516364283d7b60e01b81526001600160a01b03808616600483015260248201849052821660448201526064016104f1565b50505050565b61075883838360405180602001604052805f8152506108d4565b505050565b6001600160a01b0381165f908152600860209081526040918290208054835181840281018401909452808452606093928301828280156107ba57602002820191905f5260205f20905b8154815260200190600101908083116107a6575b50505050509050919050565b5f61032582610a9e565b5f6001600160a01b0382166107fa576040516322718ad960e21b81525f60048201526024016104f1565b506001600160a01b03165f9081526003602052604090205490565b3361081f836107c6565b6001600160a01b0316146108675760405162461bcd60e51b815260206004820152600f60248201526e2737ba103a37b5b2b71037bbb732b960891b60448201526064016104f1565b5f82815260076020526040908190206002018290555182907f6fe646ee7e53c440da16e9960f3b35aabedff435a86eedf0f5463f43b2d4cd1d906108ae9084815260200190565b60405180910390a25050565b6060600180546103eb90611674565b61049e338383610c1c565b6108df8484846106b5565b6107383385858585610ce3565b60606108f782610a9e565b505f61090d60408051602081019091525f815290565b90505f81511161092b5760405180602001604052805f815250610956565b8061093584610e0b565b604051602001610946929190611823565b6040516020818303038152906040525b9392505050565b33610967836107c6565b6001600160a01b0316146109af5760405162461bcd60e51b815260206004820152600f60248201526e2737ba103a37b5b2b71037bbb732b960891b60448201526064016104f1565b5f828152600760205260409020600401805482919060ff191660018360028111156109dc576109dc6112cf565b0217905550817fdecf0ed8235aab2fc6f35c3d8c46fad997bf17c08f7949cc7f4413afcaac459f826040516108ae9190611837565b5f818152600760209081526040918290206001018054835181840281018401909452808452606093928301828280156107ba57602002820191905f5260205f20908154815260200190600101908083116107a65750505050509050919050565b6001600160a01b039182165f90815260056020908152604080832093909416825291909152205460ff1690565b5f818152600260205260408120546001600160a01b03168061032557604051637e27328960e01b8152600481018490526024016104f1565b6107588383836001610e9b565b610aeb610f9f565b60027f9b779b17422d0df92223018b32b4d1fa46e071723d6817e2486d003becc55f0055565b61049e828260405180602001604052805f815250610fe3565b5f828152600260205260408120546001600160a01b0390811690831615610b5657610b56818486610ffa565b6001600160a01b03811615610b9057610b715f855f80610e9b565b6001600160a01b0381165f90815260036020526040902080545f190190555b6001600160a01b03851615610bbe576001600160a01b0385165f908152600360205260409020805460010190555b5f8481526002602052604080822080546001600160a01b0319166001600160a01b0389811691821790925591518793918516917fddf252ad1be2c89b69c2b068fc378daa952ba7f163c4a11628f55a4df523b3ef91a4949350505050565b6001600160a01b038316610c455760405163a9fbf51f60e01b81525f60048201526024016104f1565b6001600160a01b038216610c7757604051630b61174360e31b81526001600160a01b03831660048201526024016104f1565b6001600160a01b038381165f81815260056020908152604080832094871680845294825291829020805460ff191686151590811790915591519182527f17307eab39ab6107e8899845ad3d59bd9653f200f220920489ca2b5937696c31910160405180910390a3505050565b6001600160a01b0383163b15610e0457604051630a85bd0160e11b81526001600160a01b0384169063150b7a0290610d25908890889087908790600401611845565b6020604051808303815f875af1925050508015610d5f575060408051601f3d908101601f19168201909252610d5c91810190611881565b60015b610dc6573d808015610d8c576040519150601f19603f3d011682016040523d82523d5f602084013e610d91565b606091505b5080515f03610dbe57604051633250574960e11b81526001600160a01b03851660048201526024016104f1565b805160208201fd5b6001600160e01b03198116630a85bd0160e11b14610e0257604051633250574960e11b81526001600160a01b03851660048201526024016104f1565b505b5050505050565b60605f610e178361105e565b60010190505f8167ffffffffffffffff811115610e3657610e36611534565b6040519080825280601f01601f191660200182016040528015610e60576020820181803683370190505b5090508181016020015b5f19016f181899199a1a9b1b9c1cb0b131b232b360811b600a86061a8153600a8504945084610e6a57509392505050565b8080610eaf57506001600160a01b03821615155b15610f70575f610ebe84610a9e565b90506001600160a01b03831615801590610eea5750826001600160a01b0316816001600160a01b031614155b8015610efd5750610efb8184610a71565b155b15610f265760405163a9fbf51f60e01b81526001600160a01b03841660048201526024016104f1565b8115610f6e5783856001600160a01b0316826001600160a01b03167f8c5be1e5ebec7d5bd14f71427d1e84f3dd0314c0f7b2291e5b200ac8c7c3b92560405160405180910390a45b505b50505f90815260046020526040902080546001600160a01b0319166001600160a01b0392909216919091179055565b7f9b779b17422d0df92223018b32b4d1fa46e071723d6817e2486d003becc55f0054600203610fe157604051633ee5aeb560e01b815260040160405180910390fd5b565b610fed8383611135565b610758335f858585610ce3565b611005838383611196565b610758576001600160a01b03831661103357604051637e27328960e01b8152600481018290526024016104f1565b60405163177e802f60e01b81526001600160a01b0383166004820152602481018290526044016104f1565b5f8072184f03e93ff9f4daa797ed6e38ed64bf6a1f0160401b831061109c5772184f03e93ff9f4daa797ed6e38ed64bf6a1f0160401b830492506040015b6d04ee2d6d415b85acef810000000083106110c8576d04ee2d6d415b85acef8100000000830492506020015b662386f26fc1000083106110e657662386f26fc10000830492506010015b6305f5e10083106110fe576305f5e100830492506008015b612710831061111257612710830492506004015b60648310611124576064830492506002015b600a83106103255760010192915050565b6001600160a01b03821661115e57604051633250574960e11b81525f60048201526024016104f1565b5f61116a83835f610b2a565b90506001600160a01b03811615610758576040516339e3563760e11b81525f60048201526024016104f1565b5f6001600160a01b038316158015906111f25750826001600160a01b0316846001600160a01b031614806111cf57506111cf8484610a71565b806111f257505f828152600460205260409020546001600160a01b038481169116145b949350505050565b828054828255905f5260205f20908101928215611233579160200282015b82811115611233578251825591602001919060010190611218565b5061123f929150611243565b5090565b5b8082111561123f575f8155600101611244565b6001600160e01b03198116811461126c575f80fd5b50565b5f6020828403121561127f575f80fd5b813561095681611257565b5f6020828403121561129a575f80fd5b5035919050565b5f81518084528060208401602086015e5f602082860101526020601f19601f83011685010191505092915050565b634e487b7160e01b5f52602160045260245ffd5b600381106112ff57634e487b7160e01b5f52602160045260245ffd5b9052565b608081525f61131560808301876112a1565b90508460208301528360408301526106ac60608301846112e3565b602081525f61095660208301846112a1565b80356001600160a01b0381168114611358575f80fd5b919050565b5f806040838503121561136e575f80fd5b61137783611342565b946020939093013593505050565b5f805f805f60608688031215611399575f80fd5b853567ffffffffffffffff808211156113b0575f80fd5b818801915088601f8301126113c3575f80fd5b8135818111156113d1575f80fd5b8960208285010111156113e2575f80fd5b6020928301975095509087013590808211156113fc575f80fd5b818801915088601f83011261140f575f80fd5b81358181111561141d575f80fd5b8960208260051b8501011115611431575f80fd5b96999598505060200195604001359392505050565b5f805f60608486031215611458575f80fd5b61146184611342565b925061146f60208501611342565b9150604084013590509250925092565b5f6020828403121561148f575f80fd5b61095682611342565b602080825282518282018190525f9190848201906040850190845b818110156114cf578351835292840192918401916001016114b3565b50909695505050505050565b5f80604083850312156114ec575f80fd5b50508035926020909101359150565b5f806040838503121561150c575f80fd5b61151583611342565b915060208301358015158114611529575f80fd5b809150509250929050565b634e487b7160e01b5f52604160045260245ffd5b5f805f806080858703121561155b575f80fd5b61156485611342565b935061157260208601611342565b925060408501359150606085013567ffffffffffffffff80821115611595575f80fd5b818701915087601f8301126115a8575f80fd5b8135818111156115ba576115ba611534565b604051601f8201601f19908116603f011681019083821181831017156115e2576115e2611534565b816040528281528a60208487010111156115fa575f80fd5b826020860160208301375f60208483010152809550505050505092959194509250565b5f806040838503121561162e575f80fd5b82359150602083013560038110611529575f80fd5b5f8060408385031215611654575f80fd5b61165d83611342565b915061166b60208401611342565b90509250929050565b600181811c9082168061168857607f821691505b6020821081036116a657634e487b7160e01b5f52602260045260245ffd5b50919050565b5f600182016116c957634e487b7160e01b5f52601160045260245ffd5b5060010190565b601f82111561075857805f5260205f20601f840160051c810160208510156116f55750805b601f840160051c820191505b81811015610e04575f8155600101611701565b815167ffffffffffffffff81111561172e5761172e611534565b6117428161173c8454611674565b846116d0565b602080601f831160018114611775575f841561175e5750858301515b5f19600386901b1c1916600185901b178555610e02565b5f85815260208120601f198616915b828110156117a357888601518255948401946001909101908401611784565b50858210156117c057878501515f19600388901b60f8161c191681555b5050505050600190811b01905550565b604080825281018390525f6001600160fb1b038411156117ee575f80fd5b8360051b808660608501376020830193909352500160600192915050565b5f81518060208401855e5f93019283525090919050565b5f6111f2611831838661180c565b8461180c565b6020810161032582846112e3565b6001600160a01b03858116825284166020820152604081018390526080606082018190525f90611877908301846112a1565b9695505050505050565b5f60208284031215611891575f80fd5b81516109568161125756fea2646970667358221220fa20368136ae0c45add905a77d5cc1c7331936a42569be38f7103fbec76be03064736f6c63430008190033",
  "linkReferences": {},
  "deployedLinkReferences": {}
}