{
  "_format": "hh-sol-artifact-1",
  "contractName": "AgentRegistry",
  "sourceName": "contracts/AgentRegistry.sol",
  "abi": [
    {
      "inputs": [
        {
          "internalType": "address",
          "name": "agentNftAddress",
          "type": "address"
        }
      ],
      "stateMutability": "nonpayable",
      "type": "constructor"
    },
    {
      "anonymous": false,
      "inputs": [
        {
          "indexed": true,
          "internalType": "uint256",
          "name": "agentId",
          "type": "uint256"
        },
        {
          "indexed": true,
          "internalType": "uint256",
          "name": "tokenId",
          "type": "uint256"
        },
        {
          "indexed": true,
          "internalType": "address",
          "name": "owner",
          "type": "address"
        }
      ],
      "name": "AgentRegistered",
      "type": "event"
    },
    {
      "inputs": [],
      "name": "agentNft",
      "outputs": [
        {
          "internalType": "contract IAgentINFT",
          "name": "",
          "type": "address"
        }
      ],
      "stateMutability": "view",
      "type": "function"
    },
    {
      "inputs": [
        {
          "internalType": "uint256",
          "name": "agentId",
          "type": "uint256"
        }
      ],
      "name": "getTokenId",
      "outputs": [
        {
          "internalType": "uint256",
          "name": "",
          "type": "uint256"
        }
      ],
      "stateMutability": "view",
      "type": "function"
    },
    {
      "inputs": [
        {
          "internalType": "uint256",
          "name": "agentId",
          "type": "uint256"
        },
        {
          "internalType": "uint256",
          "name": "tokenId",
          "type": "uint256"
        }
      ],
      "name": "register",
      "outputs": [],
      "stateMutability": "nonpayable",
      "type": "function"
    }
  ],
  "bytecode": "0x60a0604052348015600e575f80fd5b506040516102fa3803806102fa833981016040819052602b91603b565b6001600160a01b03166080526066565b5f60208284031215604a575f80fd5b81516001600160a01b0381168114605f575f80fd5b9392505050565b6080516102776100835f395f8181607a015260e901526102775ff3fe608060405234801561000f575f80fd5b506004361061003f575f3560e01c806314ff5ea3146100435780639cbef4a914610075578063d66d6c10146100b4575b5f80fd5b6100626100513660046101dd565b5f9081526020819052604090205490565b6040519081526020015b60405180910390f35b61009c7f000000000000000000000000000000000000000000000000000000000000000081565b6040516001600160a01b03909116815260200161006c565b6100c76100c23660046101f4565b6100c9565b005b6040516331a9108f60e11b81526004810182905233906001600160a01b037f00000000000000000000000000000000000000000000000000000000000000001690636352211e90602401602060405180830381865afa15801561012e573d5f803e3d5ffd5b505050506040513d601f19601f820116820180604052508101906101529190610214565b6001600160a01b03161461019e5760405162461bcd60e51b815260206004820152600f60248201526e2737ba103a37b5b2b71037bbb732b960891b604482015260640160405180910390fd5b5f82815260208190526040808220839055513391839185917f36f1a6bffe72ccec3e44ae71c7b2a3f578d85462c1fd40b3770df8808915929891a45050565b5f602082840312156101ed575f80fd5b5035919050565b5f8060408385031215610205575f80fd5b50508035926020909101359150565b5f60208284031215610224575f80fd5b81516001600160a01b038116811461023a575f80fd5b939250505056fea26469706673582212204fee9a117efd16e9b904182bb6cd1ccbc82324a4cd686659e8445184563e1ad364736f6c63430008190033",
  "linkReferences": {},
  "deployedLinkReferences": {}
}