{
  "contracts/AgentRegistry.sol": {
    "AgentRegistry": {
      "abi": [
        {
          "inputs": [
            {
              "internalType": "address",
              "name": "agentNftAddress",
              "type": "address"
            }
          ],
          "stateMutability": "nonpayable",
          "type": "constructor"
        },
        {
          "anonymous": false,
          "inputs": [
            {
              "indexed": true,
              "internalType": "uint256",
              "name": "agentId",
              "type": "uint256"
            },
            {
              "indexed": true,
              "internalType": "uint256",
              "name": "tokenId",
              "type": "uint256"
            },
            {
              "indexed": true,
              "internalType": "address",
              "name": "owner",
              "type": "address"
            }
          ],
          "name": "AgentRegistered",
          "type": "event"
        },
        {
          "inputs": [],
          "name": "agentNft",
          "outputs": [
            {
              "internalType": "contract IAgentINFT",
              "name": "",
              "type": "address"
            }
          ],
          "stateMutability": "view",
          "type": "function"
        },
        {
          "inputs": [
            {
              "internalType": "uint256",
              "name": "agentId",
              "type": "uint256"
            }
          ],
          "name": "getTokenId",
          "outputs": [
            {
              "internalType": "uint256",
              "name": "",
              "type": "uint256"
            }
          ],
          "stateMutability": "view",
          "type": "function"
        },
        {
          "inputs": [
            {
              "internalType": "uint256",
              "name": "agentId",
              "type": "uint256"
            },
            {
              "internalType": "uint256",
              "name": "tokenId",
              "type": "uint256"
            }
          ],
          "name": "register",
          "outputs": [],
          "stateMutability": "nonpayable",
          "type": "function"
        }
      ],
      "evm": {
        "bytecode": {
          "linkReferences": {},
          "object": "60a0604052348015600e575f80fd5b506040516102fa3803806102fa833981016040819052602b91603b565b6001600160a01b03166080526066565b5f60208284031215604a575f80fd5b81516001600160a01b0381168114605f575f80fd5b9392505050565b6080516102776100835f395f8181607a015260e901526102775ff3fe608060405234801561000f575f80fd5b506004361061003f575f3560e01c806314ff5ea3146100435780639cbef4a914610075578063d66d6c10146100b4575b5f80fd5b6100626100513660046101dd565b5f9081526020819052604090205490565b6040519081526020015b60405180910390f35b61009c7f000000000000000000000000000000000000000000000000000000000000000081565b6040516001600160a01b03909116815260200161006c565b6100c76100c23660046101f4565b6100c9565b005b6040516331a9108f60e11b81526004810182905233906001600160a01b037f00000000000000000000000000000000000000000000000000000000000000001690636352211e90602401602060405180830381865afa15801561012e573d5f803e3d5ffd5b505050506040513d601f19601f820116820180604052508101906101529190610214565b6001600160a01b03161461019e5760405162461bcd60e51b815260206004820152600f60248201526e2737ba103a37b5b2b71037bbb732b960891b604482015260640160405180910390fd5b5f82815260208190526040808220839055513391839185917f36f1a6bffe72ccec3e44ae71c7b2a3f578d85462c1fd40b3770df8808915929891a45050565b5f602082840312156101ed575f80fd5b5035919050565b5f8060408385031215610205575f80fd5b50508035926020909101359150565b5f60208284031215610224575f80fd5b81516001600160a01b038116811461023a575f80fd5b939250505056fea2646970667358221220af453c9209db461d30a098a9adf3bac75f93f2e142cf3f20e8fec806c00f7f9664736f6c63430008190033",
          "opcodes": "PUSH1 0xA0 PUSH1 0x40 MSTORE CALLVALUE DUP1 ISZERO PUSH1 0xE JUMPI PUSH0 DUP1 REVERT JUMPDEST POP PUSH1 0x40 MLOAD PUSH2 0x2FA CODESIZE SUB DUP1 PUSH2 0x2FA DUP4 CODECOPY DUP2 ADD PUSH1 0x40 DUP2 SWAP1 MSTORE PUSH1 0x2B SWAP2 PUSH1 0x3B JUMP JUMPDEST PUSH1 0x1 PUSH1 0x1 PUSH1 0xA0 SHL SUB AND PUSH1 0x80 MSTORE PUSH1 0x66 JUMP JUMPDEST PUSH0 PUSH1 0x20 DUP3 DUP5 SUB SLT ISZERO PUSH1 0x4A JUMPI PUSH0 DUP1 REVERT JUMPDEST DUP2 MLOAD PUSH1 0x1 PUSH1 0x1 PUSH1 0xA0 SHL SUB DUP2 AND DUP2 EQ PUSH1 0x5F JUMPI PUSH0 DUP1 REVERT JUMPDEST SWAP4 SWAP3 POP POP POP JUMP JUMPDEST PUSH1 0x80 MLOAD PUSH2 0x277 PUSH2 0x83 PUSH0 CODECOPY PUSH0 DUP2 DUP2 PUSH1 0x7A ADD MSTORE PUSH1 0xE9 ADD MSTORE PUSH2 0x277 PUSH0 RETURN INVALID PUSH1 0x80 PUSH1 0x40 MSTORE CALLVALUE DUP1 ISZERO PUSH2 0xF JUMPI PUSH0 DUP1 REVERT JUMPDEST POP PUSH1 0x4 CALLDATASIZE LT PUSH2 0x3F JUMPI PUSH0 CALLDATALOAD PUSH1 0xE0 SHR DUP1 PUSH4 0x14FF5EA3 EQ PUSH2 0x43 JUMPI DUP1 PUSH4 0x9CBEF4A9 EQ PUSH2 0x75 JUMPI DUP1 PUSH4 0xD66D6C10 EQ PUSH2 0xB4 JUMPI JUMPDEST PUSH0 DUP1 REVERT JUMPDEST PUSH2 0x62 PUSH2 0x51 CALLDATASIZE PUSH1 0x4 PUSH2 0x1DD JUMP JUMPDEST PUSH0 SWAP1 DUP2 MSTORE PUSH1 0x20 DUP2 SWAP1 MSTORE PUSH1 0x40 SWAP1 KECCAK256 SLOAD SWAP1 JUMP JUMPDEST PUSH1 0x40 MLOAD SWAP1 DUP2 MSTORE PUSH1 0x20 ADD JUMPDEST PUSH1 0x40 MLOAD DUP1 SWAP2 SUB SWAP1 RETURN JUMPDEST PUSH2 0x9C PUSH32 0x0 DUP2 JUMP JUMPDEST PUSH1 0x40 MLOAD PUSH1 0x1 PUSH1 0x1 PUSH1 0xA0 SHL SUB SWAP1 SWAP2 AND DUP2 MSTORE PUSH1 0x20 ADD PUSH2 0x6C JUMP JUMPDEST PUSH2 0xC7 PUSH2 0xC2 CALLDATASIZE PUSH1 0x4 PUSH2 0x1F4 JUMP JUMPDEST PUSH2 0xC9 JUMP JUMPDEST STOP JUMPDEST PUSH1 0x40 MLOAD PUSH4 0x31A9108F PUSH1 0xE1 SHL DUP2 MSTORE PUSH1 0x4 DUP2 ADD DUP3 SWAP1 MSTORE CALLER SWAP1 PUSH1 0x1 PUSH1 0x1 PUSH1 0xA0 SHL SUB PUSH32 0x0 AND SWAP1 PUSH4 0x6352211E SWAP1 PUSH1 0x24 ADD PUSH1 0x20 PUSH1 0x40 MLOAD DUP1 DUP4 SUB DUP2 DUP7 GAS STATICCALL ISZERO DUP1 ISZERO PUSH2 0x12E JUMPI RETURNDATASIZE PUSH0 DUP1 RETURNDATACOPY RETURNDATASIZE PUSH0 REVERT JUMPDEST POP POP POP POP PUSH1 0x40 MLOAD RETURNDATASIZE PUSH1 0x1F NOT PUSH1 0x1F DUP3 ADD AND DUP3 ADD DUP1 PUSH1 0x40 MSTORE POP DUP2 ADD SWAP1 PUSH2 0x152 SWAP2 SWAP1 PUSH2 0x214 JUMP JUMPDEST PUSH1 0x1 PUSH1 0x1 PUSH1 0xA0 SHL SUB AND EQ PUSH2 0x19E JUMPI PUSH1 0x40 MLOAD PUSH3 0x461BCD PUSH1 0xE5 SHL DUP2 MSTORE PUSH1 0x20 PUSH1 0x4 DUP3 ADD MSTORE PUSH1 0xF PUSH1 0x24 DUP3 ADD MSTORE PUSH15 0x2737BA103A37B5B2B71037BBB732B9 PUSH1 0x89 SHL PUSH1 0x44 DUP3 ADD MSTORE PUSH1 0x64 ADD PUSH1 0x40 MLOAD DUP1 SWAP2 SUB SWAP1 REVERT JUMPDEST PUSH0 DUP3 DUP2 MSTORE PUSH1 0x20 DUP2 SWAP1 MSTORE PUSH1 0x40 DUP1 DUP3 KECCAK256 DUP4 SWAP1 SSTORE MLOAD CALLER SWAP2 DUP4 SWAP2 DUP6 SWAP2 PUSH32 0x36F1A6BFFE72CCEC3E44AE71C7B2A3F578D85462C1FD40B3770DF88089159298 SWAP2 LOG4 POP POP JUMP JUMPDEST PUSH0 PUSH1 0x20 DUP3 DUP5 SUB SLT ISZERO PUSH2 0x1ED JUMPI PUSH0 DUP1 REVERT JUMPDEST POP CALLDATALOAD SWAP2 SWAP1 POP JUMP JUMPDEST PUSH0 DUP1 PUSH1 0x40 DUP4 DUP6 SUB SLT ISZERO PUSH2 0x205 JUMPI PUSH0 DUP1 REVERT JUMPDEST POP POP DUP1 CALLDATALOAD SWAP3 PUSH1 0x20 SWAP1 SWAP2 ADD CALLDATALOAD SWAP2 POP JUMP JUMPDEST PUSH0 PUSH1 0x20 DUP3 DUP5 SUB SLT ISZERO PUSH2 0x224 JUMPI PUSH0 DUP1 REVERT JUMPDEST DUP2 MLOAD PUSH1 0x1 PUSH1 0x1 PUSH1 0xA0 SHL SUB DUP2 AND DUP2 EQ PUSH2 0x23A JUMPI PUSH0 DUP1 REVERT JUMPDEST SWAP4 SWAP3 POP POP POP JUMP INVALID LOG2 PUSH5 0x6970667358 0x22 SLT KECCAK256 0xAF GASLIMIT EXTCODECOPY SWAP3 MULMOD 0xDB CHAINID SAR ADDRESS LOG0 SWAP9 0xA9 0xAD RETURN 0xBA 0xC7 PUSH0 SWAP4 CALLCODE 0xE1 TIMESTAMP 0xCF EXTCODEHASH KECCAK256 0xE8 INVALID 0xC8 MOD 0xC0 0xF PUSH32 0x9664736F6C634300081900330000000000000000000000000000000000000000 "
        },
        "methodIdentifiers": {
          "agentNft()": "9cbef4a9",
          "getTokenId(uint256)": "14ff5ea3",
          "register(uint256,uint256)": "d66d6c10"
        }
      }
    }
  }
}